:020000040800F2
:1000000000C00020B94200087D4200087F4200087D
:100010008142000883420008854200080000000079
:1000200000000000000000000000000087420008FF
:1000300089420008000000008B4200088D42000841
:100040000143000801430008014300080143000880
:100050000143000801430008014300080143000870
:10006000014300080143000801430008913A0008D9
:100070000143000801430008014300080143000850
:1000800099420008A9420008014300080143000802
:100090000143000801430008014300080143000830
:1000A0000143000801430008014300080143000820
:1000B0000143000801430008014300080143000810
:1000C0000143000801430008014300080143000800
:1000D00001430008014300080143000801430008F0
:1000E00001430008014300080143000801430008E0
:1000F00001430008014300080143000801430008D0
:1001000001430008014300080143000801430008BF
:1001100001430008014300080143000801430008AF
:10012000014300080143000801430008014300089F
:1001300000000000000000000000000000000000BF
:1001400000000000000000000000000000000000AF
:10015000000000000000000000000000000000009F
:10016000000000000000000000000000000000008F
:10017000000000000000000000000000000000007F
:10018000000000000000000000000000000000006F
:10019000000000000000000000000000000000005F
:1001A000000000000000000000000000000000004F
:1001B000000000000000000000000000000000003F
:1001C000000000000000000000000000000000002F
:1001D000000000000000000000000000000000001F
:0401E0005FF8E0F1F3
:1001E80010B5054C237833B9044B13B10448AFF369
:1001F80000800123237010BD88000020000000004B
:10020800EC4B000808B5034B1BB103490348AFF397
:10021800008008BD000000008C000020EC4B0008A6
:10022800034613F8012B002AFBD1181A013870472E
:1002380070B54FF0FF0C4CF4E06C1CEA11541DBF74
:100248001CEA135594EA0C0F95EA0C0F00F0DEF83F
:100258002C4481EA030621EA4C5123EA4C5350EA24
:10026800013518BF52EA033541F4801143F4801375
:1002780038D0A0FB02CE4FF00005E1FB02E506F006
:100288000042E0FB03E54FF00006E1FB03569CF05B
:10029800000F18BF4EF0010EA4F1FF04B6F5007F61
:1002A80064F5407404D25FEA4E0E6D4146EB0606D3
:1002B80042EAC62141EA55514FEAC52040EA5E505C
:1002C8004FEACE2EB4F1FD0C88BFBCF5E06F1ED806
:1002D800BEF1004F08BF5FEA500E50F1000041EB3D
:1002E800045170BD06F0004646EA010140EA0200EA
:1002F80081EA0301B4EB5C04C2BFD4EB0C0541EA0C
:10030800045170BD41F480114FF0000E013C00F320
:10031800AB8014F1360FDEBF002001F0004170BD44
:10032800C4F10004203C35DA0C341BDC04F114045D
:10033800C4F1200500FA05F320FA04F001FA05F2E9
:1003480040EA020001F0004221F0004110EBD370B6
:1003580021FA04F642EB06015EEA430E08BF20EAE2
:10036800D37070BDC4F10C04C4F1200500FA04F385
:1003780020FA05F001FA04F240EA020001F0004117
:1003880010EBD37041F100015EEA430E08BF20EA8A
:10039800D37070BDC4F1200500FA05F24EEA020ED2
:1003A80020FA04F301FA05F243EA020321FA04F001
:1003B80001F0004121FA04F220EA020000EBD370B8
:1003C8005EEA430E08BF20EAD37070BD94F0000FB8
:1003D8000FD101F00046400041EB010111F4801FEC
:1003E80008BF013CF7D041EA060195F0000F18BF9D
:1003F800704703F00046520043EB030313F4801FD9
:1004080008BF013DF7D043EA0603704794EA0C0F92
:100418000CEA135518BF95EA0C0F0CD050EA4106A8
:1004280018BF52EA4306D1D181EA030101F0004125
:100438004FF0000070BD50EA410606BF104619464D
:1004480052EA430619D094EA0C0F02D150EA013659
:1004580013D195EA0C0F05D152EA03361CBF10469A
:1004680019460AD181EA030101F0004141F0FE4139
:1004780041F470014FF0000070BD41F0FE4141F4BD
:10048800780170BD4FF0FF0C1CEAD0521EBF1CEA69
:10049800D15392EA0C0F93EA0C0F6FD01A4480EAFA
:1004A800010C400218BF5FEA41211ED04FF00063E3
:1004B80043EA501043EA5111A0FB01310CF000400F
:1004C800B1F5000F3EBF490041EAD3715B0040EA35
:1004D800010062F17F02FD2A1DD8B3F1004F40EB05
:1004E800C25008BF20F00100704790F0000F0CF0D8
:1004F800004C08BF49024CEA502040EA51207F3A9C
:10050800C2BFD2F1FF0340EAC250704740F4000076
:100518004FF00003013A5DDC12F1190FDCBF00F067
:1005280000407047C2F10002410021FA02F1C2F115
:10053800200200FA02FC5FEA310040F1000053EAB1
:100548004C0308BF20EADC70704792F0000F00F0FF
:10055800004C02BF400010F4000F013AF9D040EA05
:100568000C0093F0000F01F0004C02BF490011F499
:10057800000F013BF9D041EA0C018FE70CEAD15397
:1005880092EA0C0F18BF93EA0C0F0AD030F0004C17
:1005980018BF31F0004CD8D180EA010000F00040CB
:1005A800704790F0000F17BF90F0004F084691F089
:1005B800000F91F0004F14D092EA0C0F01D14202C3
:1005C8000FD193EA0C0F03D14B0218BF084608D18C
:1005D80080EA010000F0004040F0FE4040F40000D6
:1005E800704740F0FE4040F44000704781F0004101
:1005F80002E000BF83F0004330B54FEA41044FEA00
:10060800430594EA050F08BF90EA020F1FBF54EA9A
:10061800000C55EA020C7FEA645C7FEA655C00F036
:10062800E2804FEA5454D4EB5555B8BF6D420CDD07
:100638002C4480EA020281EA030382EA000083EA8A
:10064800010180EA020281EA0303362D88BF30BD2A
:1006580011F0004F4FEA01314FF4801C4CEA113180
:1006680002D0404261EB410113F0004F4FEA0333DF
:100678004CEA133302D0524263EB430394EA050F6A
:1006880000F0A780A4F10104D5F1200E0DDB02FAD9
:100698000EFC22FA05F2801841F1000103FA0EF26D
:1006A800801843FA05F359410EE0A5F120050EF133
:1006B800200E012A03FA0EFC28BF4CF0020C43FA64
:1006C80005F3C01851EBE37101F0004507D54FF071
:1006D800000EDCF1000C7EEB00006EEB0101B1F5C1
:1006E800801F1BD3B1F5001F0CD349085FEA300007
:1006F8004FEA3C0C04F101044FEA445212F5800F12
:1007080080F09A80BCF1004F08BF5FEA500C50F1AE
:10071800000041EB045141EA050130BD5FEA4C0C91
:10072800404141EB0101013C28BFB1F5801FE9D2EE
:1007380091F0000F04BF01460020B1FA81F308BF11
:100748002033A3F10B03B3F120020CDA0C3208DDDD
:1007580002F1140CC2F10C0201FA0CF021FA02F1B8
:100768000CE002F11402D8BFC2F1200C01FA02F128
:1007780020FA0CFCDCBF41EA0C019040E41AA2BF4D
:1007880001EB0451294330BD6FEA04041F3C1CDA15
:100798000C340EDC04F11404C4F1200220FA04F035
:1007A80001FA02F340EA030021FA04F345EA0301DF
:1007B80030BDC4F10C04C4F1200220FA02F001FAA1
:1007C80004F340EA0300294630BD21FA04F0294623
:1007D80030BD94F0000F83F4801306BF81F48011BC
:1007E8000134013D4EE77FEA645C18BF7FEA655C2F
:1007F80029D094EA050F08BF90EA020F05D054EA01
:10080800000C04BF1946104630BD91EA030F1EBF05
:100818000021002030BD5FEA545C05D14000494109
:1008280028BF41F0004130BD14F580043CBF01F5FC
:10083800801130BD01F0004545F0FE4141F47001E2
:100848004FF0000030BD7FEA645C1ABF19461046BD
:100858007FEA655C1CBF0B46024650EA013406BFBE
:1008680052EA033591EA030F41F4002130BD00BF7D
:1008780090F0000F04BF0021704730B54FF480643A
:1008880004F132044FF000054FF0000150E700BFBB
:1008980090F0000F04BF0021704730B54FF480641A
:1008A80004F1320410F0004548BF40424FF0000107
:1008B8003EE700BF42004FEAE2014FEA31014FEA4A
:1008C80002701FBF12F07F4393F07F4F81F0605199
:1008D800704732F07F4208BF704793F07F4F04BFE4
:1008E80041F40021704730B54FF4607401F00045C1
:1008F80021F000411CE700BF50EA010208BF704721
:1009080030B54FF000050AE050EA010208BF704711
:1009180030B511F0004502D5404261EB41014FF47A
:10092800806404F132045FEA915C3FF4D8AE4FF082
:1009380003025FEADC0C18BF03325FEADC0C18BF65
:10094800033202EBDC02C2F1200300FA03FC20FAB6
:1009580002F001FA03FE40EA0E0021FA02F1144403
:10096800BDE600BF4FF0FF3C06E000BF4FF0010CB2
:1009780002E000BF4FF0010C4DF804CD4FEA410CE6
:100988007FEA6C5C4FEA430C18BF7FEA6C5C1BD0B3
:1009980001B050EA410C0CBF52EA430C91EA030F34
:1009A80002BF90EA020F0020704710F1000F91EA91
:1009B800030F58BF994208BF90422CBFD8176FEA5F
:1009C800E37040F0010070474FEA410C7FEA6C5C2D
:1009D80002D150EA013C07D14FEA430C7FEA6C5C34
:1009E800D6D152EA033CD3D05DF8040B704700BF60
:1009F8008446104662468C461946634600E000BFAE
:100A080001B5FFF7B7FF002848BF10F1000F01BD7F
:100A18004DF808EDFFF7F4FF0CBF012000205DF84A
:100A280008FB00BF4DF808EDFFF7EAFF34BF0120CF
:100A380000205DF808FB00BF4DF808EDFFF7E0FF68
:100A480094BF012000205DF808FB00BF4DF808EDB9
:100A5800FFF7CEFF94BF012000205DF808FB00BF20
:100A68004DF808EDFFF7C4FF34BF012000205DF802
:100A780008FB00BF4FEA410212F5001215D211D54A
:100A88006FF47873B3EB625212D94FEAC12343F083
:100A9800004343EA505311F0004F23FA02F018BF05
:100AA800404270474FF00000704750EA013005D1CE
:100AB80011F0004008BF6FF0004070474FF0000091
:100AC800704700BF4FEA4102B2F1E04324BFB3F5DB
:100AD800001CDCF1FE5C0DD901F0004C4FEAC002AD
:100AE8004CEA5070B2F1004F40EB830008BF20F091
:100AF8000100704711F0804F21D113F13872BCBF4B
:100B080001F00040704741F480114FEA5252C2F19F
:100B18001802C2F1200C10FA0CF320FA02F018BFE8
:100B280040F001004FEAC1234FEAD32303FA0CFC3B
:100B380040EA0C0023FA02F34FEA4303CCE77FEACA
:100B4800625307D150EA01331EBF4FF0FE4040F414
:100B58004000704701F0004040F0FE4040F40000C3
:100B6800704700BF80F0004002E000BF81F0004104
:100B780042001FBF5FEA410392EA030F7FEA226C3B
:100B88007FEA236C6AD04FEA1262D2EB1363C1BFCB
:100B9800D218414048404140B8BF5B42192B88BF3A
:100BA800704710F0004F40F4000020F07F4018BF5D
:100BB800404211F0004F41F4000121F07F4118BF7D
:100BC800494292EA030F3FD0A2F1010241FA03FC25
:100BD80010EB0C00C3F1200301FA03F100F000430D
:100BE80002D5494260EB4000B0F5000F13D3B0F1D5
:100BF800807F06D340084FEA310102F10102FE2A44
:100C080051D2B1F1004F40EBC25008BF20F00100B3
:100C180040EA03007047490040EB0000013A28BF52
:100C2800B0F5000FEDD2B0FA80FCACF1080CB2EBD5
:100C38000C0200FA0CF0AABF00EBC2505242184353
:100C4800BCBFD0401843704792F0000F81F40001F8
:100C580006BF80F400000132013BB5E74FEA4103CB
:100C68007FEA226C18BF7FEA236C21D092EA030F37
:100C780004D092F0000F08BF0846704790EA010FB1
:100C88001CBF0020704712F07F4F04D1400028BFDE
:100C980040F00040704712F100723CBF00F50000C0
:100CA800704700F0004343F0FE4040F400007047F6
:100CB8007FEA226216BF08467FEA236301464202A2
:100CC80006BF5FEA412390EA010F40F480007047B5
:100CD8004FF0000304E000BF10F0004348BF40425B
:100CE8005FEA000C08BF704743F0964301464FF097
:100CF80000001CE050EA010208BF70474FF00003F3
:100D08000AE000BF50EA010208BF704711F0004333
:100D180002D5404261EB41015FEA010C02BF844603
:100D28000146002043F0B64308BFA3F18053A3F562
:100D38000003BCFA8CF2083AA3EBC25310DB01FAA9
:100D480002FC634400FA02FCC2F12002BCF1004F2D
:100D580020FA02F243EB020008BF20F001007047BE
:100D680002F1200201FA02FCC2F1200250EA4C0012
:100D780021FA02F243EB020008BF20EADC70704758
:100D88004FF0FF3C06E000BF4FF0010C02E000BF4F
:100D98004FF0010C4DF804CD4FEA40024FEA4103F1
:100DA8007FEA226C18BF7FEA236C11D001B052EAA7
:100DB800530C18BF90EA010F58BFB2EB030088BF6D
:100DC800C81738BF6FEAE17018BF40F001007047DC
:100DD8007FEA226C02D15FEA402C05D17FEA236CBE
:100DE800E4D15FEA412CE1D05DF8040B704700BF05
:100DF800844608466146FFE70FB5FFF7C9FF00289C
:100E080048BF10F1000F0FBD4DF808EDFFF7F4FFD4
:100E18000CBF012000205DF808FB00BF4DF808ED6D
:100E2800FFF7EAFF34BF012000205DF808FB00BF90
:100E38004DF808EDFFF7E0FF94BF012000205DF8B2
:100E480008FB00BF4DF808EDFFF7D2FF94BF012063
:100E580000205DF808FB00BF4DF808EDFFF7C8FF5C
:100E680034BF012000205DF808FB00BF4FEA4002B4
:100E7800B2F1FE4F0FD34FF09E03B3EB12620DD9C0
:100E88004FEA002343F0004310F0004F23FA02F02A
:100E980018BF404270474FF00000704712F1610FD1
:100EA80001D1420205D110F0004008BF6FF00040A8
:100EB80070474FF00000704782B0084B1B68084A23
:100EC800A2FB03235B0A00FB03F3019300BF019B12
:100ED8005A1E0192002BF9D102B070470000002081
:100EE800D34D621070B582B00446036813F0010F49
:100EF8002CD0AB4B5B6803F00C03042B1DD0A84B24
:100F08005B6803F00C03082B12D06368B3F5803FCD
:100F180041D0002B55D103F1804303F504331A68FF
:100F280022F480321A601A6822F480221A6037E0AC
:100F38009B4B5B6813F4803FE7D0994B1B6813F415
:100F4800003F03D06368002B00F0AE81236813F0E4
:100F5800020F75D0924B5B6813F00C0F5FD0904B6B
:100F68005B6803F00C03082B54D02369002B00F0B6
:100F780089808C4B01221A6001F020F80546884BC5
:100F88001B6813F0020F74D101F018F8401B0228F7
:100F9800F5D903208DE1824A136843F48033136046
:100FA800636843B301F00AF805467D4B1B6813F4E8
:100FB800003FCBD101F002F8401B6428F5D903208B
:100FC80077E1B3F5A02F09D0754B1A6822F4803267
:100FD8001A601A6822F480221A60E1E703F180435C
:100FE800A3F53C331A6842F480221A601A6842F466
:100FF80080321A60D4E700F0E1FF0546684B1B68B1
:1010080013F4003FA2D000F0D9FF401B6428F5D9A3
:1010180003204EE1624B5B6813F4803FA5D1604B1F
:101028001B6813F0020F03D02369012B40F03E81A7
:101038005B4A136823F0F803616943EAC10313604C
:10104800236813F0080F32D0A369002B45D0564B04
:1010580001221A6000F0B2FF0546514B5B6A13F09B
:10106800020F21D100F0AAFF401B0228F5D9032066
:101078001FE14B4A136823F0F803616943EAC1038F
:101088001360DDE7474B00221A6000F097FF054622
:10109800434B1B6813F0020FD2D000F08FFF401BA8
:1010A8000228F5D9032004E10120FFF705FF236892
:1010B80013F0040F00F09880394BDB6913F0805F60
:1010C8001DD1374BDA6942F08052DA61DB6903F0EF
:1010D80080530193019B012512E0334B00221A60D3
:1010E80000F06CFF05462E4B5B6A13F0020FDED052
:1010F80000F064FF401B0228F5D90320D9E0002541
:101108002A4B1B6813F4807F11D0E368012B22D08F
:10111800002B38D103F1804303F504331A6A22F017
:1011280001021A621A6A22F004021A6218E01F4ABF
:10113800136843F48073136000F040FF06461B4BAE
:101148001B6813F4807FE0D100F038FF801B64280F
:10115800F5D90320ADE0124A136A43F00103136284
:10116800E3687BB300F02AFF06460D4B1B6A13F0B9
:10117800020F38D100F022FF801B41F288339842D9
:10118800F3D9032095E0052B12D0054B1A6A22F0FB
:1011980001021A621A6A22F004021A62E0E700BF2A
:1011A80000100240000042428004424200700040A9
:1011B800424B1A6A42F004021A621A6A42F00102A9
:1011C8001A62CDE700F0FAFE06463C4B1B6A13F0A4
:1011D800020F08D000F0F2FE801B41F288339842DB
:1011E800F3D9032065E0E5B9E369002B60D0334A01
:1011F800526802F00C02082A5DD0022B17D0304B3F
:1012080000221A6000F0DAFE04462C4B1B6813F02B
:10121800007F47D000F0D2FE001B0228F5D903203A
:1012280047E0264AD36923F08053D361DCE7244B97
:1012380000221A6000F0C2FE0546204B1B6813F01E
:10124800007F06D000F0BAFE401B0228F5D9032023
:101258002FE0236AB3F5803F1AD018494B6823F46E
:101268007413226A606A024313434B60144B0122D1
:101278001A6000F0A3FE0446104B1B6813F0007FB1
:101288000ED100F09BFE001B0228F5D9032010E0C8
:101298000A4A536823F40033A1680B435360DCE720
:1012A800002006E0002004E0012002E0012000E028
:1012B800002002B070BD0120FBE700BF0010024013
:1012C8006000424286B0164B0FCB0DF1180C0CE9AA
:1012D8000F0040F20123ADF80430124B5B6803F0B5
:1012E8000C02082A02D0104806B07047C3F38342A4
:1012F800624412F8100C13F4803F0CD0094B5B6861
:10130800C3F34043634413F8142C074BB3FBF2F3C5
:1013180000FB03F0E8E7054B03FB00F0E4E700BF40
:10132800044C00080010024000127A0000093D0039
:1013380070B504460D46594B1B6803F007038B42F2
:101348000BD2564A136823F007030B431360136844
:1013580003F007038B4240F09A80236813F0020FD2
:1013680006D04F4A536823F0F003A1680B4353603B
:10137800236813F0010F52D06368012B23D0022B8E
:1013880028D0474A126812F0020F00F082804449C0
:101398004A6822F0030213434B6000F00FFE064632
:1013A8006368012B1DD0022B2AD03D4B5B6813F0DC
:1013B8000C0F34D000F002FE831B41F288329342B6
:1013C800F3D9032062E0364A126812F4003FDED1F6
:1013D80001205BE0324A126812F0007FD7D1012069
:1013E80054E02F4B5B6803F00C03042B17D000F07C
:1013F800E5FD831B41F288329342F2D9032045E090
:10140800274B5B6803F00C03082B08D000F0D6FDCF
:10141800801B41F288339842F2D9032036E01F4BF3
:101428001B6803F00703AB420AD91C4A136823F070
:1014380007032B431360136803F00703AB422AD159
:10144800236813F0040F06D0154A536823F4E063A9
:10145800E1680B435360236813F0080F07D0104A64
:10146800536823F46053216943EAC1035360FFF7CB
:1014780029FF0B4B5B68C3F303130A4AD35CD840BC
:10148800094B1860002000F069FD002070BD0120A4
:10149800FCE70120FAE70120F8E700BF002002403E
:1014A80000100240184C000800000020014B18688A
:1014B800704700BF0000002008B5FFF7F7FF044B96
:1014C8005B68C3F30223034AD35CD84008BD00BF5E
:1014D80000100240284C000808B5FFF7E7FF044B4E
:1014E8005B68C3F3C223034AD35CD84008BD00BF7E
:1014F80000100240284C000830B4036A23F00103AE
:101508000362056A4268846924F073040B681C430B
:1015180025F002058B682B43104DA84203D005F532
:101528000065A84205D123F00803CD682B4323F0BA
:1015380004030A4DA84203D005F50065A84205D169
:1015480022F440724D6915438A692A4342608461D6
:101558004A684263036230BC704700BF002C0140F8
:1015680030B4036A23F480730362036A4268C4696F
:1015780024F073040D682C4323F400738D6843EA48
:101588000523124DA84203D005F50065A84206D1EF
:1015980023F40063CD6843EA052323F480630B4DED
:1015A800A84203D005F50065A84207D122F44052AD
:1015B8004D6942EA05128D6942EA05124260C4612A
:1015C8004A68C263036230BC704700BF002C014008
:1015D80030B4036A23F480530362036A4468C2691F
:1015E80022F4E6420D6842EA052223F400538D688E
:1015F80043EA0533094DA84203D005F50065A84222
:1016080004D124F480444D6944EA85144460C261DD
:101618004A680264036230BC704700BF002C014076
:1016280030B4036A056A25F001050562846924F06F
:10163800F00444EA021423F00A030B4384610362B2
:1016480030BC704730B4056A25F01005056284691E
:10165800036A24F4704444EA023423F0A00343EA02
:1016680001138461036230BC704710B4846824F4A9
:101678007F4442EA03220A432243826010BC704737
:1016880010B50468A26822F070024B68134323F077
:1016980007030A681343A3604B68602B24D009D85A
:1016A800402B10D0502B0DD10A6989680068FFF7CC
:1016B800B7FF07E0702B05D10B698A68C968006815
:1016C800FFF7D3FF10BD03681C6A1A6A22F00102F3
:1016D8001A620268936923F0F003096943EA011367
:1016E800936103681C62EDE70A6989680068FFF77F
:1016F800A9FFE7E7704738B590F83C30012B18D0C0
:101708000446012580F83C50022380F83D30FFF75D
:10171800B7FF2268D36823F04003D3602268D368F8
:1017280023F48043D36084F83D50002084F83C00C3
:1017380038BD0220FCE700000368244A904212D01A
:1017480002F5006290420ED0B0F1804F0BD0A2F5A6
:101758009832904207D002F58062904203D002F599
:101768008062904203D123F070034A681343174AFA
:10177800904212D002F5006290420ED0B0F1804F34
:101788000BD0A2F59832904207D002F580629042C1
:1017980003D002F58062904203D123F44073CA68F3
:1017A800134323F080034A69134303608B68C362C1
:1017B8000B688362054B984203D003F50063984297
:1017C80001D10B690363012343617047002C014079
:1017D800B0B110B5044690F83D3063B1022384F8E7
:1017E8003D30214651F8040BFFF7A6FF012384F88A
:1017F8003D30002010BD80F83C30FFF77BFFEDE75F
:101808000120704730B4036A23F010030362036AAF
:101818004468826922F4E6420D6842EA052223F010
:1018280020038D6843EA0513114DA84203D005F53E
:101838000065A84206D123F08003CD6843EA05136A
:1018480023F040030A4DA84203D005F50065A842DD
:1018580007D124F440644D6944EA85048D6944EA5B
:101868008504446082614A688263036230BC7047C1
:10187800002C014038B590F83C30012B66D0044666
:101888000D46012380F83C30022380F83D300C2AB5
:101898001AD8DFE802F0071919192019191934198B
:1018A800191947000068FFF727FE2268936943F07B
:1018B800080393612268936923F004039361226803
:1018C800936929690B439361012384F83D30002013
:1018D80084F83C0038BD0068FFF794FF22689369DC
:1018E80043F4006393612268936923F480639361EE
:1018F80022689369296943EA01239361E4E7006850
:10190800FFF72EFE2268D36943F00803D3612268EB
:10191800D36923F00403D3612268D36929690B438F
:10192800D361D1E70068FFF753FE2268D36943F417
:101938000063D3612268D36923F48063D36122688A
:10194800D369296943EA0123D361BDE70220C1E7CE
:1019580010B4012303FA01F4036A23EA04030362BF
:10196800036A02FA01F10B43036210BC70470000DE
:1019780010B5044601220068FFF7EAFF2368094A08
:10198800934203D002F50062934203D15A6C42F4A9
:1019980000425A642268136843F001031360002070
:1019A80010BD00BF002C014010B4042303FA01F459
:1019B800036A23EA04030362036A02FA01F10B4390
:1019C800036210BC704710B5044604220068FFF794
:1019D800EBFF2268536C43F4004353642268136896
:1019E80043F001031360002010BD90F83C30012B38
:1019F80025D0012380F83C30CB6823F440738A68F3
:101A0800134323F480634A68134323F400630A688A
:101A1800134323F480530A69134323F400534A6998
:101A2800134323F480438A69134323F40043134385
:101A380002685364002380F83C301846704702203F
:101A4800704790F83C30012B22D030B4012280F846
:101A58003C20022380F83D300468636823F070035B
:101A68006360046863680D682B4363600468A36857
:101A780023F08003A3600468A36849680B43A3604C
:101A880080F83D20002380F83C30184630BC704771
:101A980002207047034690F82420012A20D0012212
:101AA80080F824200268906810F0010F07D10D48D3
:101AB800806810F0010F02D10B48824208D09A6A60
:101AC80042F020029A620120002283F82420704705
:101AD800506820F470200968014351600020F3E742
:101AE800022070470028014000240140074AD368BB
:101AF80023F4E0631B041B0C000200F4E0600343C2
:101B080043F0BF6343F40033D360704700ED00E057
:101B180030B4174BDB68C3F30223C3F10704042C6A
:101B280028BF04241D1D062D18D9033B4FF0FF358F
:101B380005FA04F421EA0401994005FA03F322EABC
:101B48000303194300280BDB0901C9B200F1604007
:101B580000F5614080F8001330BC70470023E5E7CA
:101B680000F00F000901C9B2024B1954F4E700BF95
:101B780000ED00E014ED00E000F01F024009012331
:101B88009340024A42F82030704700BF00E100E06D
:101B98000138B0F1807F0AD2064B5860064AF0211E
:101BA80082F823100020986007221A6070470120ED
:101BB800704700BF10E000E000ED00E0042805D009
:101BC800054A136823F0040313607047024A136838
:101BD80043F004031360704710E000E0704708B555
:101BE800FFF7FCFF08BD0000F0B482B000252C46CA
:101BF800ABE0854FBB4210D007D9844FBB420CD015
:101C080007F58037BB4208D013E0A7F58017BB4221
:101C180003D007F57027BB4207D18B68002B60D033
:101C2800012B59D04261082503E0A7F58017BB4274
:101C3800F3D0FF2E57D88446FF2E57D8A200DCF8E1
:101C480000300F27974023EA070305FA02F21343EF
:101C5800CCF800304B6813F0805F75D06C4B9A69F4
:101C680042F001029A619B6903F001030193019B11
:101C7800A208971C674B53F827C004F003039F0082
:101C88000F23BB402CEA030C634B984234D003F576
:101C98008063984200F0948003F58063984200F0D6
:101CA800918003F58063984200F08E8003F580638D
:101CB800984200F08B8003F5806398421AD006237F
:101CC8001BE0CD68B5E7CD680435B2E7CD680835C7
:101CD800AFE7CD680C35ACE702610825A9E7002518
:101CE800A7E70425A5E700F1040CA5E7A4F108027D
:101CF8009200A4E7052300E00023BB4043EA0C035D
:101D08000232444F47F822304B6813F4803F5FD0CB
:101D1800424A1368334313604B6813F4003F5DD0A5
:101D28003E4A5368334353604B6813F4801F5BD0BB
:101D38003A4A9368334393604B6813F4001F59D0B1
:101D4800364AD3681E43D66001340F2C58D8012276
:101D5800A2400B6803EA020632EA0303F4D14B6897
:101D6800122B3FF646AF122B3FF663AF01A757F889
:101D780023F000BF231C0008CB1C0008D51C00085A
:101D8800E71C00083B1C00083B1C00083B1C000823
:101D98003B1C00083B1C00083B1C00083B1C0008BF
:101DA8003B1C00083B1C00083B1C00083B1C0008AF
:101DB8003B1C00083B1C0008CF1C0008DB1C00086B
:101DC80001239AE7022398E7032396E7042394E77D
:101DD800124A136823EA060313609DE70F4A536803
:101DE80023EA060353609FE70C4A936823EA060335
:101DF8009360A1E7094AD36823EA0606D660A3E7F9
:101E080002B0F0BC704700BF000022100000311083
:101E18000010024000000140000801400004014099
:101E28008368194201D001207047002070470AB129
:101E380001617047090401617047C3685940C16076
:101E48007047000070B582B00446036813F0010FB4
:101E580034D03E4BDB6913F0805F47D13B4BDA69E6
:101E680042F08052DA61DB6903F080530193019BF1
:101E78000125374B1B6813F4807F39D0334B1B6A1D
:101E880013F4407311D0626802F440729A420CD085
:101E98002E4A136A23F440702E4901260E6000264C
:101EA8000E60106213F0010F36D1284A136A23F42A
:101EB800407361680B431362002D3ED1236813F011
:101EC800020F06D0214A536823F44043A1680B430C
:101ED8005360236813F0100F34D01C4A536823F45E
:101EE800800361690B43536000202CE00025C0E7A4
:101EF800174A136843F48073136000F05FF80646CE
:101F0800134B1B6813F4807FB8D100F057F8801B7F
:101F18006428F5D9032016E000F050F806460B4B6C
:101F28001B6A13F0020FC0D100F048F8801B41F281
:101F380088339842F3D9032005E0D36923F080530E
:101F4800D361BBE7002002B070BD00BF00100240A3
:101F580000700040400442427047000010B504463B
:101F6800074B1868074BA3FB00308009FFF710FEEA
:101F7800002221464FF0FF30FFF7CAFD002010BDB8
:101F880000000020D34D621008B5074A136843F0DB
:101F9800100313600320FFF7A9FD0020FFF7DEFF01
:101FA800FFF7DAFF002008BD00200240024A13684C
:101FB80001331360704700BFE0000020014B186830
:101FC800704700BFE000002030B583B00190FFF7F4
:101FD800F5FF0546019CB4F1FF3F00D00134FFF73F
:101FE800EDFF401BA042FAD303B030BD704700009C
:101FF80030B482B00022019290F82420012A00F027
:102008008B800346012280F824204A68062A29D8B2
:102018000568686B02EB8202053A1F24944020EAA7
:1020280004000C6804FA02F202436A630A68092A87
:1020380038D91D68E86802EB42021E3A072494402A
:1020480020EA04008C6804FA02F20243EA600A6893
:10205800103A012A34D90020002283F8242002B043
:1020680030BC70470C2A0ED80568286B02EB820238
:10207800233A1F24944020EA04000C6804FA02F270
:1020880002432A63D2E70568E86A02EB8202413A12
:102098001F24944020EA04000C6804FA02F2024368
:1020A800EA62C3E71D68286902EB420207249440EC
:1020B80020EA04008C6804FA02F202432A61C6E7A7
:1020C8001A681648824205D09A6A42F020029A623B
:1020D8000120C1E7906810F4000F1BD1906840F40C
:1020E800000090600A68102A01D00020B4E70C4A6A
:1020F80012680C49A1FB0212920C02EB82025200F8
:10210800019202E0019A013A0192019A002AF9D15A
:102118000020A1E700209FE70220A0E7002401405B
:102128000000002083DE1B4330B583B000230193F9
:1021380003689A6812F0010F2DD104469A6842F09C
:1021480001029A60154B1B68154AA2FB03239B0CDE
:102158000193019B1BB1019B013B0193F9E7FFF739
:102168002DFF054623689B6813F0010F11D1FFF777
:1021780025FF431B022BF5D9A36A43F01003A36282
:10218800E36A43F00103E362002384F8243001206A
:1021980002E0002000E0002003B030BD0000002075
:1021A80083DE1B4390F82430012B68D010B5044619
:1021B800012380F82430FFF7B7FF00285BD1A36A1A
:1021C80023F4407323F0010343F48073A36223686C
:1021D8002C4A934227D0A26A22F48012A2625A683B
:1021E80012F4806F05D0A26A22F4405242F4805261
:1021F800A262A26A12F4805F2BD0E26A22F0060281
:10220800E262002284F824206FF002021A60236838
:102218009A6802F46022B2F5602F1DD09A6842F4E1
:1022280080129A602AE0A2F58062526812F4702F38
:10223800D1D0A26A42F48012A262134A526812F400
:10224800806FD6D0A26A22F4405242F48052A26231
:10225800CFE70022E262D4E70A4A934204D09A68A0
:1022680042F4A0029A6009E0A2F58062526812F472
:10227800702FD3D1F3E7002384F8243010BD022057
:10228800704700BF002801400024014038B50368AA
:102298009A6812F0010F01D1002038BD04469A68EF
:1022A80022F001029A60FFF789FE054623689B68C1
:1022B80013F0010F0ED0FFF781FE431B022BF5D957
:1022C800A36A43F01003A362E36A43F00103E362E5
:1022D8000120E2E70020E0E7002800F08680F8B55A
:1022E8000446836A002B50D02046FFF7CFFFA36A2D
:1022F80013F0100373D1002871D1A26A22F4885216
:1023080022F0020242F00202A2626268266838499C
:102318008E4240D0E1690A43E16842EA4102A56879
:10232800B5F5807F02D0012D3CD01D466769012F8D
:102338003BD0716821F46941294371602568AE6812
:102348002C4931401143A960A168B1F5807F01D0C3
:10235800012902D12369013B1B052568E96A21F49B
:1023680070010B43EB6223689968234B0B409A4238
:102378002CD0A36A23F0120343F01003A362E36A8C
:1023880043F00103E36201202EE0C36280F82430A9
:10239800FFF72CFEA8E7E169B1F5402FBBD14FF458
:1023A8000021B8E74FF48075C0E731B9A169013958
:1023B80045EA413141F40065BBE7A16A41F02001DB
:1023C800A162E16A41F00101E162B2E70023E36240
:1023D800A36A23F0030343F00103A36204E0A36AA2
:1023E80043F01003A3620120F8BD0120704700BF2D
:1023F800003C0140FDF7E1FFFE0E1FFF0268D368B5
:1024080023F0C003D360202380F839307047026876
:10241800D36823F49073D3600268536923F00103EF
:102428005361202380F83A30704700002DE9F843C3
:1024380005460268136923F44053C1680B431361CE
:10244800836802691343426913430168CA6822F426
:10245800B05222F00C021343CB600268536923F494
:10246800407381690B4353610268594B9A4257D0B4
:10247800FFF722F800EB800000EB80006C68A400F6
:10248800B0FBF4F4534EA6FB043464092701FFF7AC
:1024980013F800EB800404EB84046B689B00B4FB26
:1024A800F3F9FFF709F800EB800303EB83036C688B
:1024B800A400B3FBF4F4A6FB043464094FF06408E9
:1024C80008FB149424013234A6FB0434640904F094
:1024D800F0043C44FEF7F0FF00EB800000EB8000C6
:1024E8006F68BF00B0FBF7F7FEF7E6FF00EB800070
:1024F80000EB80006B689B00B0FBF3F0A6FB00309C
:10250800400908FB10784FEA081808F13208A6FBC2
:102518000836C6F343162B6826449E60BDE8F88348
:10252800FEF7DAFF00EB800000EB80006C68A40087
:10253800B0FBF4F4274EA6FB043464092701FEF728
:10254800CBFF00EB800404EB84046B689B00B4FBB6
:10255800F3F9FEF7C1FF00EB800000EB80006C6828
:10256800A400B0FBF4F4A6FB043464094FF064083B
:1025780008FB149424013234A6FB0434640904F0E3
:10258800F0043C44FEF7A8FF00EB800000EB80005D
:102598006F68BF00B0FBF7F7FEF79EFF00EB800007
:1025A80000EB80006B689B00B0FBF3F0A6FB0030EB
:1025B800400908FB10784FEA081808F13208A6FB12
:1025C8000836C6F343162B6826449E60A6E700BF6C
:1025D800003801401F85EB51704758B310B50446C9
:1025E80090F839300BB3242384F839302268D36843
:1025F80023F40053D3602046FFF718FF22681369BD
:1026080023F4904313612268536923F02A0353612A
:102618002268D36843F40053D3600020E06320238A
:1026280084F8393084F83A3010BD80F83830FFF734
:10263800D3FFD8E70120704730B583B0044690F83F
:102648003A00C0B220283CD100293DD0002A3DD014
:1026580094F83830012B3BD0012384F83830A1623C
:10266800A2850025E563222384F83A30636B194874
:102678009862636B1848D862636B18481863636B79
:102688005D63206813460A46011D606B00F014F96B
:10269800019523681A6801925A680192019A84F890
:1026A8003850DA6842F48072DA602268536943F07D
:1026B800010353612268536943F04003536128467C
:1026C80000E0022003B030BD0120FBE70120F9E75C
:1026D8000220F7E74F2700088F2700089B270008EC
:1026E80010B5044601684A6990F83930DBB2212BED
:1026F8000AD021684A6902F0400294F83A30DBB205
:10270800222B11D0002010BD02F08002002AF0D048
:102718004B6923F080034B61006B08B100F006F9A8
:102728002046FFF76BFEE4E7002AEBD04B6923F065
:1027380040034B61606B08B100F0F8F82046FFF7E2
:1027480066FEDFE7704708B50346406A1B681B68EA
:1027580013F0200F13D10023C3850268D36823F434
:102768008073D3600268536923F0010353610268E0
:10277800536923F040035361202380F83A30FFF770
:10278800E1FF08BD704708B5406AFFF7FBFF08BDC9
:10279800704710B5446A23685A6994F83930DBB237
:1027A800212B10D023685A6902F0400294F83A307D
:1027B800DBB2222B11D0E36B43F01003E363204616
:1027C800FFF7E6FF10BD02F08002002AEAD00023DE
:1027D800E3842046FFF712FEE4E7002AEBD000234B
:1027E800E3852046FFF713FEE5E770B4066CC56B7A
:1027F8000124B4406C60046863604368102B05D002
:10280800036899600368DA6070BC704703689A606F
:102818000368D960F8E7000000283ED010B40346EA
:1028280000681F4A90422DD81E4A02441E49A1FB47
:102838000212120992001A641C4ADA63022283F80F
:102848002120016821F47F5121F030015A689C68E9
:102858002243DC6822431C6922435C6922439C6949
:102868002243DC6922430A43026000209862D8624E
:10287800186358639863012283F8212083F82000A5
:1028880010BC70470A4A02440749A1FB0212120908
:1028980092001A64074ADA63D0E70120704700BF44
:1028A80007040240F8FFFDBFCDCCCCCC00000240AD
:1028B800F8FBFDBF0004024038B5044690F820003C
:1028C800012831D0012084F8200094F82100012843
:1028D80004D0002384F82030022038BD022084F878
:1028E80021000020A0632568286820F001002860E6
:1028F8002046FFF77AFFE36A5BB12268136843F06A
:102908000E0313602268136843F00103136000206C
:10291800E3E72268136823F004031360226813684E
:1029280043F00A031360EDE70220D6E70346016887
:102938000A6822F00E020A6001680A6822F00102A1
:102948000A60026CC06B012101FA02F2426083F84E
:102958002110002083F820007047000038B5C36BB1
:102968001A6804682568016C04238B40134200F040
:102978009B8015F0040F00F09780236813F0200F58
:1029880003D1236823F0040323600368AA4A93420F
:1029980046D9783A934224D01432934228D014323C
:1029A800934227D01432934227D01432934227D02F
:1029B8001432934227D01432934227D002F5627220
:1029C800934226D01432934225D01432934224D015
:1029D8001432934202D04FF4802203E04FF4804235
:1029E80000E00422954B5A60C36A03B1984738BD8A
:1029F8004022F7E74FF48062F4E74FF48042F1E7B2
:102A08004FF48022EEE74FF48002EBE74FF080624C
:102A1800E8E70422E6E74022E4E74FF48062E1E7D2
:102A2800874A934224D01432934225D014329342D9
:102A380024D01432934224D01432934224D0143236
:102A4800934224D01432934224D002F56272934206
:102A580023D01432934222D01432934221D014321C
:102A6800934202D04FF4802203E04FF4804200E00A
:102A78000422744B5A60B7E74022FAE74FF48062A9
:102A8800F7E74FF48042F4E74FF48022F1E74FF480
:102A98008002EEE74FF08062EBE70422E9E740228C
:102AA800E7E74FF48062E4E702238B40134200F02B
:102AB800A38015F0020F00F09F80236813F0200F09
:102AC80006D1236823F00A032360012380F821300C
:102AD8000368594A93424BD9783A934224D0143226
:102AE80093422DD0143293422CD0143293422CD0DE
:102AF800143293422CD0143293422CD01432934285
:102B08002CD002F5627293422BD0143293422AD011
:102B18001432934229D01432934202D04FF4003237
:102B280003E04FF4005200E00222444B5A600023B5
:102B380080F82030836A002B3FF459AF984756E756
:102B48002022F2E74FF40072EFE74FF40052ECE76F
:102B58004FF40032E9E74FF40012E6E74FF0007255
:102B6800E3E70222E1E72022DFE74FF40072DCE727
:102B7800334A934224D01432934225D014329342DC
:102B880024D01432934224D01432934224D01432E5
:102B9800934224D01432934224D002F562729342B5
:102BA80023D01432934222D01432934221D01432CB
:102BB800934202D04FF4003203E04FF4005200E099
:102BC8000222204B5A60B2E72022FAE74FF4007243
:102BD800F7E74FF40052F4E74FF40032F1E74FF40F
:102BE8000012EEE74FF00072EBE70222E9E720223D
:102BF800E7E74FF40072E4E7082303FA01F1114212
:102C08003FF4F5AE15F0080F3FF4F1AE236823F05A
:102C18000E032360026CC16B012303FA02F24A60BF
:102C2800836380F82130002380F82030036B002B69
:102C38003FF4DDAE9847DAE6800002400004024027
:102C480008000240000002400F4B1A6842F00102DF
:102C58001A6059680D4A0A405A601A6822F084724C
:102C680022F480321A601A6822F480221A605A68A4
:102C780022F4FE025A604FF41F029A60044B4FF090
:102C880000629A60704700BF001002400000FFF821
:102C980000ED00E0F0B589B03E4EF36943F400332F
:102CA800F361F36903F400330093009B06220521C6
:102CB8001020FEF72DFF1020FEF75EFF07220521EA
:102CC8001120FEF725FF1120FEF756FF324D334B3A
:102CD8002B604FF496436B600024AC60EC602C6171
:102CE8000C236B61AC612846FFF777FC736943F0EE
:102CF80001037361736903F001030193019BB369D5
:102D080043F00403B361B36903F004030293029B25
:102D1800F36943F40033F361F36903F40033039375
:102D2800039B01230693042304930223059303239F
:102D38000793A6F5843604A93046FEF755FF082305
:102D48000493059404A93046FEF74EFF144E154B24
:102D580033607460B4608027F76034617461202345
:102D6800B361F4613046FFF757FD6E6375620E4E2E
:102D78000E4B336010237360B460F7603461746184
:102D8800B461F4613046FFF747FD2E63756209B000
:102D9800F0BD00BF00100240FC02002000440040CB
:102DA800E40000206C000240A402002080000240E1
:102DB80030B597B01F4BDA6942F48022DA61DA69DC
:102DC80002F480220092009A5A6942F001025A6184
:102DD8005B6903F001030193019B174D06954FF4BE
:102DE800E13307930024089409940A9408230B9369
:102DF8000C940D9406A8FFF7F0FB6B6943F0800371
:102E08006B614FF4806302930123049302230393BD
:102E18000323059302A90948FEF7E6FE084B1C6048
:102E2800084A9A605C6090221A601C3B70225A60C3
:102E380017B030BD0010024000480040000C0140AF
:102E48001C000240044800402DE9F04F89B07F4B38
:102E58009A6942F004029A619A6902F004020192A6
:102E6800019A9A6942F008029A619A6902F0080286
:102E78000292029A9A6942F010029A619B6903F0E1
:102E880010030393039B00230593069302270797D8
:102E98004FF0200ACDF810A06D4E04A93046FEF779
:102EA800A3FE4023049304A93046FEF79DFE4FF08D
:102EB800800BCDF810B004A93046FEF795FE4FF40C
:102EC80080630493634C04A92046FEF78DFE4FF4FB
:102ED8000063049304A92046FEF786FE4FF480554C
:102EE800049504A92046FEF77FFE049505F1804568
:102EF80005F5784504A92846FEF776FE049704A947
:102F08002846FEF771FE4FF00108CDF814804FF007
:102F18000409CDF8109004A93046FEF765FE102389
:102F280004930DEB03012846FEF75EFECDF810A0D2
:102F380004A92846FEF758FE03230593CDF8108010
:102F480004A92046FEF750FECDF8108004A92846B3
:102F5800FEF74AFE0823049304A92046FEF744FE20
:102F6800049704A92046FEF73FFE102304930DEBB7
:102F780003012046FEF738FECDF810A004A920462C
:102F8800FEF732FECDF8109004A92046FEF72CFE7D
:102F98000823049304A92846FEF726FECDF81090CE
:102FA80004A92846FEF720FE05974023049304A9A8
:102FB8002046FEF719FECDF810B004A92046FEF70A
:102FC80013FE4FF48079CDF8109004A92046FEF73F
:102FD8000BFECDF810B004A92846FEF705FECDF883
:102FE800108004A93046FEF7FFFD049704A9304677
:102FF800FEF7FAFDCDF8109004A92846FEF7F4FD77
:103008004FF40073049304A92846FEF7EDFD4FF42E
:103018008063049304A92846FEF7E6FD4FF40053A5
:10302800049304A93046FEF7DFFD4FF48043049370
:1030380004A93046FEF7D8FD4FF40043049304A9D1
:103048003046FEF7D1FD09B0BDE8F08F0010024010
:10305800000C0140001001402DE9F04F99B0754B6C
:103068009A6942F400629A619A6902F400620192D4
:10307800019A9A6942F400529A619B6903F40053D9
:103088000293029B6C4EDFF8B891C6F800900024BA
:1030980074604FF02008C6F808804FF4FA6BC6F841
:1030A8000CB034617461B4613046FEF791FB1023B3
:1030B8001693179416A93046FEF7C3FC60230F93A6
:1030C8001094119408271297139414944FF40073D2
:1030D800159322460FA93046FEF7CCFB04220FA910
:1030E8003046FEF7C7FB3A460FA93046FEF7C2FB4B
:1030F8004FF4006308934FF4806309930A94CDF862
:103108002C800C940D940E940DEB08013046FEF7BC
:103118006CFC4A4DDFF82CA1C5F800A06C60C5F81E
:103128000880C5F80CB02C616C61AC612846FEF7CC
:103138004FFBCDF858808023179316A92846FEF731
:1031480080FC04940523039303A92846FEF7D3FAC9
:1031580060230F93109411941297139414944FF4BE
:103168000073159322460FA92846FEF783FB042215
:103178000FA92846FEF77EFB3A460FA92846FEF718
:1031880079FB4FF4006308934FF4806309930A9422
:10319800CDF82C800C940D940E940DEB0801284664
:1031A800FEF723FCDAF8443023F40043CAF844302D
:1031B800D9F8443023F40043C9F84430214628465E
:1031C800FEF7D6FB04212846FEF7D2FB39462846EF
:1031D800FEF7CEFB21462846FEF7F5FB04212846DC
:1031E800FEF7F1FB39462846FEF7EDFB214630464F
:1031F800FEF7BEFB04213046FEF7BAFB39463046DF
:10320800FEF7B6FB21463046FEF7DDFB04213046CB
:10321800FEF7D9FB39463046FEF7D5FB2B6801226D
:103228001A633268136843F00103136019B0BDE8EC
:10323800F08F00BF00100240AC0100203C030020CA
:10324800002C0140003401402DE9F04186B0414E88
:10325800B36943F40073B361B36903F40073009373
:10326800009B3D4C3D4B23604FF48073A3600025C9
:10327800E56065614FF44023E36165604FF0050840
:10328800C4F810802046FFF727F8354A536843F4FE
:10329800802353604FF4C023059305A92046FEF709
:1032A800F9FB012304930E220292039302A92046FC
:1032B800FEF79EFE02950227039702A92046FEF715
:1032C80097FE04970B2702970323039302A920462E
:1032D800FEF78EFE0C2302930423039302A92046D3
:1032E800FEF786FE0723049310230293CDF80C8083
:1032F80002A92046FEF77CFE2268936843F4000387
:1033080043F480739360936843F001039360736997
:1033180043F001037361736903F001030193019B97
:10332800104B1D60C3F804800F4A9A600F4ADA6098
:1033380040F6A2221A601A6842F001021A602A4670
:1033480029463846FEF7E4FB3846FEF715FC06B07A
:10335800BDE8F08100100240740200200024014002
:1033680000000140080002404C240140E80200200F
:10337800F0B585B0284B9A6942F480629A619B69DE
:1033880003F480630093009B244C254B23604FF487
:103398008073A3600023E36063614FF46022E261FD
:1033A8006360052626612046FEF796FF01230393F6
:1033B8000F220192029301A92046FEF719FE0D2360
:1033C80001930225029501A92046FEF711FE0395F7
:1033D8000A2301930327029701A92046FEF708FE56
:1033E8000195042302930DEB03012046FEF700FE2E
:1033F800072303930197029601A92046FEF7F8FDDB
:1034080023689A6842F480729A609A6842F00102CE
:103418009A6005B0F0BD00BF0010024028010020EE
:10342800002801400D4B1B681333262B14D810B508
:1034380000240B4B1C700B4B1C7005E00A4B1C70D6
:103448006420FEF7C1FD0134072CF7DD002220219E
:103458000648FEF7ECFCFEE7704700BF9C0300201F
:10346800A8000020B4000020A400002000080140AB
:1034780030B597B002250C950123109310231193B2
:103488001395002414944FF4601315930CA8FDF7BA
:1034980029FD0F230793089509944FF480630A9335
:1034A8000B94294607A8FDF743FF01954FF44043C5
:1034B800039301A8FEF7C6FCFDF7F8FF084BA3FB32
:1034C80000308009FEF764FB0420FEF777FB2246F4
:1034D80021464FF0FF30FEF71BFB17B030BD00BF91
:1034E800D34D6210000000002DE9F04F85B0FEF7C3
:1034F8004BFD9F4CA36943F00103A361A36903F04B
:1035080001030393039B0320FEF7F0FA0022114600
:103518006FF00B00FEF7FCFA002211466FF00A006C
:10352800FEF7F6FA002211466FF00900FEF7F0FAEE
:10353800002211466FF00400FEF7EAFA0022114655
:103548006FF00300FEF7E4FA002211466FF0010065
:10355800FEF7DEFA002211464FF0FF30FEF7D8FAE8
:10356800FFF786FF636923F001036361FFF76CFCD3
:10357800FFF772FDFFF768FEFFF7FAFEFFF718FC8A
:10358800012220217B48FEF752FC7B48FEF70AFE09
:103598007A48FEF707FE082405E0794B1C70642082
:1035A800FEF712FD013C002CF7DA4FF0000A744BCD
:1035B80083F800A0012204217248FEF738FCFFF7C7
:1035C80069FB082270497148FFF736F8704B188A72
:1035D80080B2FDF77DFB83466E4B01221A70CDF851
:1035E80004A086E16849CA8892B2488800B26A4B4A
:1035F8004340898809B24B409BB29A4240F084818B
:10360800614B5B881BB2B3F57A7F09DC5E4B5B8844
:103618001BB213F57A7F17DB5B4B5B881BB201E0AB
:103628004FF47A735D4A1360574B9B881BB2B3F50E
:103638007A7F0BDC544B9B881BB213F57A7F0ADB2D
:10364800514B9B881BB203E0554BEBE74FF47A7361
:10365800544A136065E1524BFAE74C4C2046FFF799
:103668003FF8082248492046FEF7E6FF59E14FF4A3
:103678007A7832463B4620462946FCF7BDFF044689
:103688000D460022484BFDF7EBF988B936A3D3E97C
:10369800002320462946FDF7C5F9002860D12046B9
:1036A8002946FDF7E7F9044604E0DFF8F480E0E78F
:1036B8004FF47A740AF13103A34216DBAAF1310AF6
:1036C800A24512DC019A1346313343450DDBA2F1C2
:1036D8003109C14509DC354B1B68042B05D8344B2F
:1036E800C3F800806342334A1360334B1A68334B84
:1036F800A3FB0213DB0803EB830303EB83039A4268
:103708006CD002211B48FEF78BFB38B12C4B1B6891
:1037180023B92C4B1B68002B00F0B5802A4B1D6881
:103728002A492846FDF77AFB28B1294B1B68133331
:10373800262B40F2B48027492846FDF76FFB002866
:1037480000F0B08021492846FDF786FB002800F0EC
:10375800A9800B4B05221A701F4B06221A70A6E08F
:103768000F4CA7E7AFF300800000000000408FC0B7
:1037780000100240000801407402002028010020C7
:10378800A4000020000C014084030020FC0200205B
:10379800E8020020B4000020AAAAFFFFA40300202A
:1037A80018FCFFFF9003002000408F400400002019
:1037B800C8000020C40000207C0300201F85EB51B6
:1037C800D0000020CC00002008000020CCCC06420D
:1037D8009C03002000000C42A80000205846FDF77A
:1037E80069F889A3D3E90023FCF722FD06460F46B2
:1037F800DFF89092B9F8100080B2FDF769FAFDF78A
:1038080059F883A3D3E90023FCF712FD02460B46BF
:1038180030463946FCF7F0FEFDF754F983468449F3
:10382800FDF7A4F98349FCF72DFE8349FDF7A0F9BC
:1038380005464146022000F0D7FC2146032000F04F
:10384800D3FCB9F80C1089B2042000F0CDFC7B49F8
:103858007B4B1868FCF716FEFDF708FB01460520B0
:1038680000F0C2FC5846FDF701FB0146062000F0B7
:10387800BBFC2846FDF7FAFA0146072000F0B4FC25
:1038880000F0B8FC3DE76F4B00221A7002216E4829
:10389800FEF7C6FA0028F9D1FFF7C4FD3EE7FFF7A7
:1038A800C1FD04E00023694A1370694A137084EA71
:1038B800E473A3EBE473322B06DC88EAE873A3EB2A
:1038C800E873322B40F39B80624B00221A60614BF5
:1038D8001A68614B9A4201D9FFF7A4FD5F4A136841
:1038E800013313605E4A136801331360CDF8048016
:1038F800A2460520FEF768FB5A4B1B889BB24AF686
:10390800AA2293423FF46EAE544B1A68564BA3FB5F
:103918000213DB0803EB830303EB83039A423FF4B0
:103928009CAE4F4B00221A60504F3868FCF7B0FF2E
:1039380039A3D3E90023FCF77BFC04460D464C4B26
:103948001868FCF7A5FF36A3D3E90023FCF770FC41
:1039580002460B4620462946FCF74EFEFDF78AF83C
:1039680006463860434F3868FCF792FF2AA3D3E92C
:103978000023FCF75DFC04460D463F4B1868FCF736
:1039880087FF27A3D3E90023FCF752FC02460B4626
:1039980020462946FCF730FEFDF76CF83860FCF746
:1039A80077FF0022354BFCF743FC04460D463046B2
:1039B800FCF76EFF0022314BFCF73AFC06460F4637
:1039C80002460B4620462946FCF714FE80468946E7
:1039D80000222B4BFDF744F800287FF448AE12A3D1
:1039E800D3E9002340464946FDF71CF800287FF438
:1039F8005CAE40464946FDF73DF8804639E6154A33
:103A080013680133136062E7AE47E17A14AEEF3F03
:103A18007B14AE47E17A843FCDCCCCCCCCCCEC3F08
:103A28009A9999999999B93F0000000000408FC070
:103A380000E0CE44083748BE33330F420000C84286
:103A480008000020B400002000080140A400002065
:103A5800A800002080030020803801007C0300209B
:103A680004000020840300201F85EB5194030020EC
:103A7800A40300209C030020900300200000E03FE6
:103A880000408F40E80200207D4B02225A607D4BA7
:103A98001B68B3F57A7F61DB2DE9F0417A4B1A6830
:103AA8007A4BA3FB02139B094FF47A7101FB132392
:103AB80013BB774E3068FCF7FDFE6BA3D3E90023F8
:103AC800FCF7B6FB04460D46724B988980B2FDF7A9
:103AD800FFF87149FCF7D6FCFCF7ECFE64A3D3E9C8
:103AE8000023FCF7A5FB02460B4620462946FCF7B7
:103AF80083FDFCF7E7FF3060664B588980B2674B5F
:103B08001C68001BFCF7C4FE5BA3D3E90023FCF789
:103B18008FFB00220023FCF785FF002859D15D4B5D
:103B2800588980B2001BFCF7B3FE53A3D3E90023E6
:103B3800FCF77EFB00225A4BFCF792FF002859D174
:103B4800584B1B68052B55D8574B1B78002B51D069
:103B5800564A536C43F40043536450E00133494AD6
:103B680013604C4A93889BB251490868034403EB9D
:103B7800D3735B100B60D3889BB24E49086803442B
:103B880003EBD3735B100B6013889BB24A49086838
:103B9800034403EBD3735B100B6053889BB2474914
:103BA8000868034403EBD3735B100B6053899BB223
:103BB8003A490868034403EBD3735B100B6013891D
:103BC8009BB23F4A11680B4403EBD3735B1013603D
:103BD8007047304B588980B2001BFCF759FE26A36A
:103BE800D3E90023FCF724FB0022364BFCF71AFF2D
:103BF8000028A5D02D4A536C23F400435364254B69
:103C0800188980B22E4B1C68001BFCF741FE1AA3D2
:103C1800D3E90023FCF70CFB00220023FCF702FF8A
:103C2800002853D11B4B188980B2001BFCF730FECB
:103C380011A3D3E90023FCF7FBFA0022184BFCF789
:103C48000FFF002853D1174B1B68052B4FD8164B75
:103C58001B78002B4BD01C4A536C43F4004353642D
:103C68004AE000BFAFF30080AE47E17A14AEEF3F01
:103C78007B14AE47E17A843F7B14AE47E17A943FE8
:103C880000000240B8000020AC000020D34D6210B4
:103C980008000020E802002017B9CE3C0C000020E4
:103CA80000002E4004000020B40000200034014031
:103CB80014000020180000201C0000202000002014
:103CC8001000002000002EC0002C01408E4B1889E7
:103CD80080B2001BFCF7DCFD89A3D3E90023FCF7C5
:103CE800A7FA0022894BFCF79DFE0028ABD0884A32
:103CF800536C23F40043536486498B6813F0200FF8
:103D08000CBF012300238A6812F0400F0CBF012268
:103D18000022896811F0800F0CBF012500257E491B
:103D2800886810F4806F0CBF012000208C6814F4A0
:103D3800006F0CBF01240024896811F4805F02EB36
:103D4800450203EB4203754EF35C75490B600B6843
:103D580003F102030B600D68724B83FB0572A2EB43
:103D6800E57202EB4202A5EB42020A600CBF022296
:103D78000022224400EB4202B05C6B4A10601068DB
:103D880002301060106883FB0043A3EBE07303EB81
:103D98004303A0EB4303136009685B4883889BB225
:103DA800624A12689A1AC3889BB2614800681B1A53
:103DB800052934D8DFE801F0032326292C2FD31A4C
:103DC8005C4A13605C4A1368013313605B4A1468E9
:103DD8004CB35B4AA2FB0312120B5A490968013122
:103DE800B2FBF1F001FB1022EAB9B3FBF4F204FBD9
:103DF8001233EBB910215448FEF71FF818E04D4B69
:103E08001A60DFE74B4B1A60DCE74A4A1360D9E7D0
:103E1800484A1360D6E79B1A464A1360D2E7454BD7
:103E280000221A60CEE7002210214748FDF7FFFF65
:103E3800464B18683A4B1B68052B28D8DFE803F077
:103E48000312171B1F23C0F1000C04461846404BF1
:103E58001968354B1B68052B4ED8DFE803F01D3B6E
:103E68003F43474A044640424FF0000CEFE7844680
:103E780040420024EBE7444284460020E7E74442FE
:103E88004FF0000CE3E7C0F1000C0024DFE74FF02F
:103E9800000C64466046DAE74D420F4619462B4B44
:103EA8001B68002B40F39A802A4B1E681C4B1B682A
:103EB80005331C4A82FB03E2A2EBE37202EB4202E7
:103EC800A3EB4202052A00F28480DFE802F045698C
:103ED8006E73787D0F4649420025E0E70D4649425A
:103EE8000027DCE74F420D460021D8E74F42002566
:103EF800D5E74D420027D2E700252F462946CEE7D1
:103F08007B14AE47E17A943FE802002000002EC0FF
:103F1800002C0140000C014000100140304C00080A
:103F2800BC000020ABAAAA2AC00000201400002070
:103F380018000020B0000020AC000020A4000020E1
:103F48005917B7D1A800002000080140C40000207C
:103F5800C8000020CC000020C6F10008B64616466E
:103F6800304474440CEB0806974B1B68002B40F355
:103F78009D80964B1B68964A126802F1050C954A7B
:103F880082FB0CE2A2EBEC7202EB4202ACEB4202C7
:103F9800052A00F28680DFE802F0566B70757A7F9A
:103FA800B64676424FF00008DAE7B04676424FF060
:103FB800000ED5E7C6F1000EB0460026D0E7C6F1E0
:103FC800000E4FF00008CBE7C6F100084FF0000ED6
:103FD800C6E74FF00008C6464646C1E77E4B1E6856
:103FE800C6F1000E7D4B1A6801327A4B83FB0283BF
:103FF800A3EBE27303EB4303A2EB4303052B1AD8AD
:10400800DFE803F0031E060A0E14B0461E46A7E7B3
:10401800F0464FF0000EA3E7F046B64600269FE7AD
:10402800334676469E464FF0000899E7B0467646F6
:104038004FF0000E94E74FF00008C64646468FE75B
:104048004FF000088CE7C3F100089E461346194458
:1040580007EB0E0205EB080340F2DE35A8425CDCF4
:10406800A5F2BC75A842B8BF284600F57A7556E097
:104078009E465B424FF00008E9E798465B424FF0E6
:10408800000EE4E7C3F1000E98460023DFE7C3F112
:10409800000E4FF00008DAE7C3F100084FF0000EF9
:1040A800D5E74FF00008C6464346D0E7474B1B68A4
:1040B800C3F1000E464A12680132DFF818C18CFBC2
:1040C800028CACEBE27C0CEB4C0CA2EB4C0CBCF184
:1040D800050F1AD8DFE80CF0031E060A0E149846DE
:1040E8006346B4E7F0464FF0000EB0E7F0469E4650
:1040F8000023ACE71A46734696464FF00008A6E739
:10410800984673464FF0000EA1E74FF00008C646E8
:1041180043469CE74FF0000899E740F2C6753048DF
:10412800456340F2DE30844207DCA0F2BC70844272
:10413800B8BF044604F57A7401E040F2C674284812
:10414800846340F2DE30864207DCA0F2BC70B042E5
:10415800B8BF304600F57A7001E040F2C670204CD6
:10416800E06340F2DE30814207DCA0F2BC7081429D
:10417800B8BF014601F57A7101E040F2C6711948ED
:10418800416340F2DE318A4207DCA1F2BC718A4207
:10419800B8BF0A4602F57A7201E040F2C6721149C8
:1041A8008A6340F2DE32934207DCA2F2BC72934289
:1041B800B8BF134603F57A7301E040F2C673094AA3
:1041C800D363BDE8F08100BFC8000020D000002004
:1041D800C0000020ABAAAA2ACC000020BC00002006
:1041E80000340140002C0140014B23F810107047A7
:1041F8000C040020F0B587B01A4F6422002138461D
:1042080000F0A0F818490A88B1F802C0888800B2FE
:10421800CC8824B20D892DB24E8936B28B891BB257
:10422800C98909B2059104930396029501940090F7
:104238000FFA8CF312B20D49384600F08BF80C4B8C
:104248005B686BB90A4C236823F001032360384686
:10425800FBF7E6FF6060E760236843F00103236033
:1042680007B0F0BDA80300200C040020384C00085B
:104278001C0002407047FEE7FEE7FEE7FEE77047D6
:104288007047704708B5FDF791FEFDF7A8FC08BD1B
:1042980008B50248FEF762FB08BD00BFE400002035
:1042A80008B50248FEF75AFB08BD00BFA40200206B
:1042B800002103E00B4B5B58435004310A480B4B79
:1042C80042189A42F6D30A4A02E0002342F8043B15
:1042D800084B9A42F9D3FEF7B7FC00F00FF8FFF746
:1042E80003F97047A04C0008000000208800002057
:1042F800880000202C040020FEE7000070B500268E
:104308000C4D0D4C641BA410A64209D100F06AFCA8
:1043180000260A4D0A4C641BA410A64205D170BDA4
:1043280055F8043B98470136EEE755F8043B9847A3
:104338000136F2E7984C0008984C0008984C0008A1
:104348009C4C000803460244934200D1704703F88E
:10435800011BF9E70EB46FF0004100B59CB01DAB2E
:1043680002900690079104910848094953F8042BD4
:104378000591006802A9019300F068F80022029BE9
:104388001A701CB05DF804EB03B0704724000020DD
:104398000802FFFF2DE9F0478E6882469E420C46D0
:1043A80090461F4638D88A8912F4906F32D0256813
:1043B80009690133A5EB010965694B4405EB45051E
:1043C80005EBD5756D109D4238BF1D46530531D597
:1043D800294600F053FB064650B90C234FF0FF3036
:1043E800CAF80030A38943F04003A381BDE8F087F1
:1043F8004A46216900F0CEFAA38923F4906343F07A
:104408008003A38126614E4426603E466561A5EB84
:104418000905A560BE4200D93E463246414620689D
:1044280000F0C6FAA36822689B1B32440020A360F0
:104438002260DBE72A4600F07BFB06460028E1D134
:104448005046216900F0CEFAC7E700002DE9F04F89
:1044580098468B8907461B060D4614469DB00ED517
:104468000B6963B9402100F009FB2860286120B975
:104478000C233B604FF0FF30D1E040236B610023F9
:10448800099320238DF8293030234FF00109CDF806
:104498000C80DFF8A4818DF82A3023469A4613F859
:1044A800012B0AB1252AF9D1BAEB040B0BD05B46D4
:1044B800224629463846FFF76DFF013000F0AA80F2
:1044C800099A5A4409929AF80030002B00F0A28009
:1044D80000234FF0FF32CDE905230AF1010A0493C6
:1044E80007938DF853301A935446052214F8011B8C
:1044F800514800F041FA049AD8B9D00644BF2023A5
:104508008DF85330110744BF2B238DF853309AF898
:1045180000302A2B15D0544600204FF00A0C079A79
:10452800214611F8013B303B092B4ED9B0B1079217
:1045380014E0A0EB080309FA03F31343A24604931B
:10454800D2E7039B191D1B680391002BBBBF5B427D
:1045580042F0020207930793B8BF049223782E2BE8
:104568000CD163782A2B35D1039B02341A1D1B68A2
:104578000392002BB8BF4FF0FF330593DFF8C8A0B4
:1045880003225046217800F0F7F940B14023A0EB10
:104598000A0003FA00F0049B01340343049314F85F
:1045A800011B062225488DF8281000F0E5F900289F
:1045B80038D0234B1BBB039B073323F00703083377
:1045C8000393099B3344099367E70C4601200CFBCE
:1045D8000232A5E700234FF00A0C1946013405936F
:1045E800204610F8012B303A092A03D9002BC5D0F0
:1045F8000591C3E7044601230CFB0121F0E703AB57
:1046080000932A4638460F4B04A9AFF30080421C9A
:104618000646D6D1AB895B063FF52CAF09981DB08D
:10462800BDE8F08F03AB00932A463846054B04A932
:1046380000F07CF8EBE700BF624C00086C4C000807
:10464800000000009D430008684C00082DE9F04771
:10465800164699468A680B6907469342B8BF1346BF
:10466800336091F843200C46DDF820800AB101330D
:1046780033602368990642BF336802333360256884
:1046880015F0060506D104F1190AE36832689B1A89
:10469800AB4228DC94F84320131E226818BF01237C
:1046A80092062DD44946384604F14302C0470130EA
:1046B80020D02368E56803F00603042B18BF002503
:1046C80032684FF00006A36808BFAD1A226908BF18
:1046D80025EAE5759342C4BF9B1AED181A34B54212
:1046E8001AD1002008E00123524649463846C047FF
:1046F800013003D14FF0FF30BDE8F0870135C4E742
:104708003020E11881F843005A1C94F845102244DF
:10471800023382F84310C5E701232246494638464A
:10472800C0470130E6D00136D9E700002DE9FF4740
:104738000C46277E9146782F80469A460C9904F1BC
:10474800430207D8622F0AD8002F00F0D980582FCB
:1047580000F0A48004F1420684F842703AE0A7F120
:104768006303152BF6D801A050F823F0CD470008B5
:10477800E14700085D4700085D4700085D470008FD
:104788005D470008E14700085D4700085D470008ED
:104798005D4700085D470008EF4800081148000819
:1047A800D14800085D4700085D4700081149000826
:1047B8005D470008114800085D4700085D4700088C
:1047C800D94800080B6804F142061A1D1B680A60E4
:1047D80084F842300123A4E0256808682E0600F119
:1047E80004030AD505680B60002D03DA2D236D42FA
:1047F80084F843300A235E4819E015F0400F056835
:104808000B6018BF2DB2EFE70B682568181D08600C
:10481800280601D51D6802E06906FBD51D886F2FA3
:104828000CBF08230A235248002184F84310666805
:10483800002EA8BF2168A660A4BF21F00401216052
:104848000DB9002E4DD01646B5FBF3F103FB1157F9
:10485800C75D06F8017D2F46BB420D46F4D9082BEB
:104868000BD12368DF0708D5236961689942DEBF49
:10487800302306F8013C06F1FF36921B22614B46B5
:1048880021464046CDF800A003AAFFF7DFFE01301D
:104898004CD14FF0FF3004B0BDE8F087344884F8BD
:1048A80045700E68236856F8045B1F060E6014D521
:1048B800D90744BF43F0200323601DB9236823F0C0
:1048C800200323601023AFE7236843F0200323600D
:1048D8007823284884F84530E3E75E0648BFADB240
:1048E800E6E71646BBE70B6826681D1D60690D6084
:1048F80035061B6801D5186002E07106FBD51880E3
:10490800002316462361BAE70B681A1D0A601E6861
:1049180000213046626800F02FF808B1801B606003
:1049280063682361002384F84330A8E73246494688
:1049380040462369D0470130ABD023689B0713D486
:10494800E068039B9842B8BF1846A4E701233246A3
:1049580049464046D04701309BD00135E36803996A
:104968005B1AAB42F2DCEBE7002504F11906F5E728
:10497800734C0008844C0008034610B5C9B20244C1
:104988009342184601D1002003E0047801338C4299
:10499800F6D110BD0A44914200F1FF3300D17047AF
:1049A80010B511F8014B914203F8014FF9D110BD30
:1049B800884210B501EB020402D98442234607D885
:1049C800431EA14208D011F8012B03F8012FF8E784
:1049D800014602448A4200D110BD13F8014D02F885
:1049E800014DF7E738B50546002943D051F8043C96
:1049F8000C1F002BB8BFE41800F0D0F81E4A13684B
:104A0800104633B9636014602846BDE8384000F0AA
:104A1800CBB8A3420AD921686218934201BF1A6829
:104A28005B685218226063600460EDE71A465B68B1
:104A38000BB1A342FAD911685018A0420BD12068D3
:104A48000144501883421160DED118685B68014444
:104A580011605360D8E702D90C232B60D4E7206893
:104A680021188B4201BF19685B68091821606360CF
:104A78005460C9E738BD00BFD4000020F8B5CD1C8C
:104A880025F0030508350C2D38BF0C25002D0646EA
:104A980001DBA94203D90C2333600020F8BD00F0E4
:104AA8007DF821490A6814469CB9204F3B6823B910
:104AB8002146304600F062F838602946304600F05A
:104AC8005DF8431C23D10C233046336000F06CF8AA
:104AD800E3E723685B1B17D40B2B03D923601C4423
:104AE800256004E06368A2420CBF0B605360304647
:104AF80000F05AF804F10B00231D20F00700C21A39
:104B0800CCD01B1AA350C9E722466468CCE7C41C62
:104B180024F00304A042E3D0211A304600F02EF816
:104B28000130DDD1CFE700BFD4000020D80000203D
:104B3800F8B5074614460E4621B91146BDE8F840B7
:104B4800FFF79CBF22B9FFF74DFF25462846F8BD61
:104B580000F030F8A0420FD221463846FFF78EFF0A
:104B680005460028F2D031462246FFF713FF3146AA
:104B78003846FFF737FFE9E73546E7E738B500235A
:104B8800054D044608462B6000F01EF8431C02D170
:104B98002B6803B1236038BD1C040020014800F0D5
:104BA80011B800BF24040020014800F00CB800BF71
:104BB8002404002051F8043C181F002BBCBF0B58DC
:104BC800C018704770477047044A05491368002B9E
:104BD80008BF0B461844106018467047DC000020D8
:104BE80030040020F8B500BFF8BC08BC9E467047EA
:0C4BF800F8B500BFF8BC08BC9E46704732
:104C040002030405060708090A0B0C0D0E0F101009
:104C14000000000000000000000000000102030486
:104C24000607080900000000010203040000020155
:104C340004050300313A256920323A256920333AC4
:104C4400256920343A256920353A256920363A25E4
:104C54006920373A256920383A25690D0A00232D41
:104C6400302B2000686C4C00656667454647003071
:104C740031323334353637383941424344454600BE
:104C840030313233343536373839616263646566BE
:044C9400000000001C
:044C98000D02000801
:044C9C00E901000822
:104CA00000A24A046400000000002042D007000077
:104CB000D0070000D0070000D0070000D007000098
:104CC000D0070000280000200000000000000000C5
:104CD00000000000000000000000000000000000D4
:104CE00000000000000000000000000000000000C4
:104CF00000000000000000000000000000000000B4
:104D000000000000000000000000000000000000A3
:104D10000000000000000000000000000000000093
:084D200000000000000000008B
:04000005080042B9F4
:00000001FF
